:03000000020154A6
:0100030032CA
:03000B00020104EB
:0100130032BA
:01001B0032B2
:0100230032AA
:03002B0002011EB1
:10002E00C00078B10000D8FCD00022C000C0017919
:10003E002D78A6D8FED9FADAF6D001D00022D2B3A6
:10004E0012002EC2B322A2E792B7A2E692B6A2E5A2
:10005E0092B5A2E492B412004C12002EA2E392B713
:10006E00A2E292B6A2E192B5A2E092B412004C22A4
:10007E00D2B2020054C2B2020054C2B374331200A0
:10008E008374331200837432120083742812008337
:10009E00740C1200837401120083C0027A021200E3
:1000AE0039D00222E493600612007EA380F6224429
:1000BE00404480020083C0E0E8C4540F4430120074
:1000CE007EE8540F443012007ED0E0224243445F5B
:1000DE00636F756E7465723A2078782000E58954E6
:1000EE00F04401F589758CEA758AE875F4EA75F2C3
:1000FE00E8D2A9D28C223275C80075CDA975CC9ADA
:10010E0075CBA975CA9AE4F530F531D2ADD2CA22B3
:10011E00C2CFB290C0E0C0D00530E53070020531DC
:10012E00E530B4F41CE531B40117D200B28CE4F51D
:10013E0030F531E532308004240180022499D4F563
:10014E0032D0D0D0E03275817F1200EB12010575EE
:10015E00E60075E700D2AF120088C0E074011412F9
:10016E0000BFD0E0C083C082C0E09000DA1200B2BF
:10017E00D0E0D082D083D20075320020C51CC002E0
:10018E007A32120039D00220C51030C5FDC2CAE441
:10019E00F530F531F532D2CA80033000DEC200C030
:1001AE00E0740E141200BFD0E0C000A8321200C4DA
:0501BE00D000020189E0
:00000001FF
