:0300000002018971
:0100030032CA
:03000B00020115DA
:0100130032BA
:01001B0032B2
:0100230032AA
:03002B0002012FA0
:10002E00C00078B10000D8FCD00022C000C0017919
:10003E002D78A6D8FED9FADAF6D001D00022D2B3A6
:10004E0012002EC2B322A2E792B7A2E692B6A2E5A2
:10005E0092B5A2E492B412004C12002EA2E392B713
:10006E00A2E292B6A2E192B5A2E092B412004C22A4
:10007E00D2B2020054C2B2020054C2B374331200A0
:10008E008374331200837432120083742812008337
:10009E00740C1200837401120083C0027A021200E3
:1000AE0039D00222E493600612007EA380F6224429
:1000BE00404480020083C0E0E8C4540F4430120074
:1000CE007EE8540F443012007ED0E02254696D65F4
:1000DE002078783A78783A787820582000416C6108
:1000EE00726D2078783A7878582078787800E5899B
:1000FE0054F04401F589758CEA758AE875F4EA7551
:10010E00F2E8D2A9D28C223275C80075CDA975CC71
:10011E009A75CBA975CA9AE4F530F531D2ADD2CA2B
:10012E0022C2CFB290C0E0C0D00530E530700205DB
:10013E0031E530B40140E531B4003BD200B28CE47D
:10014E00F530F531E533B45913E4F533E534B459EC
:10015E0012E4F534E532B41211E4800E2401D4F524
:10016E003380132401D4F534800C2401D4F532B439
:10017E001202B2018000D0D0D0E03275817F120021
:10018E00FC12011675E60075E700D2AF120088C0AA
:10019E00E07401141200BFD0E0C083C082C0E090B2
:1001AE0000DA1200B2D0E0D082D083C0E074011425
:1001BE001200BDD0E0C083C082C0E09000EB120000
:1001CE00B2D0E0D082D083740CD4F5327534007581
:1001DE003300740CD4F535753600D200D201C2024C
:1001EE0020C528C0027A32120039D00220C51C3038
:1001FE00C5FDC2CAE4F530F531F533F534F532F507
:10020E0035F536D201C202D2CA80033000D2C20006
:10021E00C0E07406141200BFD0E0C000A832120075
:10022E00C4D000C0E07409141200BFD0E0C000A812
:10023E00341200C4D000C0E0740C141200BFD0E021
:10024E00C000A8331200C4D000C0E074071412001E
:10025E00BDD0E0C000A8351200C4D000C0E0740AC2
:10026E00141200BDD0E0C000A8361200C4D000C0E9
:10027E00E0740E141200BDD0E0C0E0746F12007E68
:10028E00D0E0C0E0740F141200BDD0E030021CC0EC
:10029E00E0746E12007ED0E0C0E07410141200BD47
:1002AE00D0E0C0E0742012007ED0E0C0E074661290
:1002BE00007ED0E0C0E07410141200BDD0E0C0E0AB
:1002CE00746612007ED0E0C0E0740F141200BFD02E
:1002DE00E030010BC0E0744112007ED0E08009C016
:0B02EE00E0745012007ED0E00201EE30
:00000001FF
