:0300000002018773
:0100030032CA
:03000B00020115DA
:0100130032BA
:01001B0032B2
:0100230032AA
:03002B0002012FA0
:10002E00C00078B10000D8FCD00022C000C0017919
:10003E002D78A6D8FED9FADAF6D001D00022D2B3A6
:10004E0012002EC2B322A2E792B7A2E692B6A2E5A2
:10005E0092B5A2E492B412004C12002EA2E392B713
:10006E00A2E292B6A2E192B5A2E092B412004C22A4
:10007E00D2B2020054C2B2020054C2B374331200A0
:10008E008374331200837432120083742812008337
:10009E00740C1200837401120083C0027A021200E3
:1000AE0039D00222E493600612007EA380F6224429
:1000BE00404480020083C0E0E8C4540F4430120074
:1000CE007EE8540F443012007ED0E02254696D65F4
:1000DE00202078783A78783A7878582000416C6108
:1000EE00726D2078783A7878582078787800E5899B
:1000FE0054F04401F589758CEA758AE875F4EA7551
:10010E00F2E8D2A9D28C223275C80075CDA975CC71
:10011E009A75CBA975CA9AE4F530F531D2ADD2CA2B
:10012E0022C2CFB290C0E0C0D00530E530700205DB
:10013E0031E530B4E83EE531B40339D200B28CE497
:10014E00F530F531E533B45913E4F533E534B459EC
:10015E0012E4F534E532B41211E4800E2401D4F524
:10016E003380112401D4F534800A2401D4F532B43D
:10017E001202B201D0D0D0E03275817F1200FC1293
:10018E00011675E60075E700D2AF120088C0E07464
:10019E0001141200BFD0E0C083C082C0E09000DA2C
:1001AE001200B2D0E0D082D083C0E07401141200ED
:1001BE00BDD0E0C083C082C0E09000EB1200B2D090
:1001CE00E0D082D083740CD4F532753400753300D0
:1001DE00740CD4F535753600D200D201C202D203AA
:1001EE0020A01CC0027A50120039D00220A010E5C7
:1001FE0032B41201E42401D4F532B41202B2012059
:10020E00A31BC0027A50120039D00220A30FE5348E
:10021E00B45905E4F53480DD2401D4F53420861C70
:10022E00C0027A50120039D002208610E535B41281
:10023E0001E42401D4F535B41202B20320831BC0AD
:10024E00027A50120039D00220830FE536B45905D8
:10025E00E4F53680D72401D4F53620930EC0027A09
:10026E0050120039D002209302B20220C528C002DB
:10027E007A32120039D00220C51C30C5FDC2CAE444
:10028E00F530F531F533F534F532F535F536D20175
:10029E00C202D2CA80062000030201EEC200C0E0F4
:1002AE007407141200BFD0E0C000A8321200C4D0F0
:1002BE0000C0E0740A141200BFD0E0C000A83412CF
:1002CE0000C4D000C0E0740D141200BFD0E0C00016
:1002DE00A8331200C4D000C0E07407141200BDD0C1
:1002EE00E0C000A8351200C4D000C0E0740A141299
:1002FE0000BDD0E0C000A8361200C4D000C0E0742B
:10030E000E141200BDD0E0C0E0746F12007ED0E07B
:10031E00C0E0740F141200BDD0E030021EC0E074B5
:10032E006E12007ED0E0C0E07410141200BDD0E05A
:10033E00C0E0742012007ED0E0801CC0E074661213
:10034E00007ED0E0C0E07410141200BDD0E0C0E01A
:10035E00746612007ED0E0C0E0740C141200BDD0A2
:10036E00E030030BC0E0744112007ED0E08009C083
:10037E00E0745012007ED0E0C0E0740F141200BF83
:10038E00D0E030010BC0E0744112007ED0E0800955
:10039E00C0E0745012007ED0E0C3E501B5031370C7
:1003AE0011C3E534B5360BC3E532B535053002025F
:0503BE00D2820201EEF5
:00000001FF
